{
  "contractName": "SocialMusic",
  "abi": [
    {
      "constant": true,
      "inputs": [
        {
          "internalType": "address",
          "name": "",
          "type": "address"
        }
      ],
      "name": "users",
      "outputs": [
        {
          "internalType": "bytes32",
          "name": "name",
          "type": "bytes32"
        },
        {
          "internalType": "uint256",
          "name": "age",
          "type": "uint256"
        },
        {
          "internalType": "string",
          "name": "state",
          "type": "string"
        }
      ],
      "payable": false,
      "stateMutability": "view",
      "type": "function"
    },
    {
      "constant": false,
      "inputs": [
        {
          "internalType": "string",
          "name": "_songName",
          "type": "string"
        }
      ],
      "name": "addSong",
      "outputs": [],
      "payable": false,
      "stateMutability": "nonpayable",
      "type": "function"
    },
    {
      "constant": false,
      "inputs": [
        {
          "internalType": "bytes32",
          "name": "_name",
          "type": "bytes32"
        },
        {
          "internalType": "uint256",
          "name": "_age",
          "type": "uint256"
        },
        {
          "internalType": "string",
          "name": "_state",
          "type": "string"
        }
      ],
      "name": "setup",
      "outputs": [],
      "payable": false,
      "stateMutability": "nonpayable",
      "type": "function"
    },
    {
      "constant": false,
      "inputs": [
        {
          "internalType": "address",
          "name": "_user",
          "type": "address"
        }
      ],
      "name": "follow",
      "outputs": [],
      "payable": false,
      "stateMutability": "nonpayable",
      "type": "function"
    }
  ],
  "bytecode": "0x608060405234801561001057600080fd5b50610b32806100206000396000f3fe608060405234801561001057600080fd5b506004361061004c5760003560e01c80634dbf27cc146100515780637f590f5e14610095578063996fa3a514610150578063a87430ba1461021f575b600080fd5b6100936004803603602081101561006757600080fd5b81019080803573ffffffffffffffffffffffffffffffffffffffff1690602001909291905050506102ea565b005b61014e600480360360208110156100ab57600080fd5b81019080803590602001906401000000008111156100c857600080fd5b8201836020820111156100da57600080fd5b803590602001918460018302840111640100000000831117156100fc57600080fd5b91908080601f016020809104026020016040519081016040528093929190818152602001838380828437600081840152601f19601f8201169050808301925050505050505091929192905050506103cc565b005b61021d6004803603606081101561016657600080fd5b8101908080359060200190929190803590602001909291908035906020019064010000000081111561019757600080fd5b8201836020820111156101a957600080fd5b803590602001918460018302840111640100000000831117156101cb57600080fd5b91908080601f016020809104026020016040519081016040528093929190818152602001838380828437600081840152601f19601f820116905080830192505050505050509192919290505050610469565b005b6102616004803603602081101561023557600080fd5b81019080803573ffffffffffffffffffffffffffffffffffffffff169060200190929190505050610743565b6040518084815260200183815260200180602001828103825283818151815260200191508051906020019080838360005b838110156102ad578082015181840152602081019050610292565b50505050905090810190601f1680156102da5780820380516001836020036101000a031916815260200191505b5094505050505060405180910390f35b600073ffffffffffffffffffffffffffffffffffffffff168173ffffffffffffffffffffffffffffffffffffffff16141561032457600080fd5b6000803373ffffffffffffffffffffffffffffffffffffffff1673ffffffffffffffffffffffffffffffffffffffff1681526020019081526020016000206004018190806001815401808255809150509060018203906000526020600020016000909192909190916101000a81548173ffffffffffffffffffffffffffffffffffffffff021916908373ffffffffffffffffffffffffffffffffffffffff1602179055505050565b600081511180156103df57506064815111155b6103e857600080fd5b6000803373ffffffffffffffffffffffffffffffffffffffff1673ffffffffffffffffffffffffffffffffffffffff168152602001908152602001600020600301819080600181540180825580915050906001820390600052602060002001600090919290919091509080519060200190610464929190610805565b505050565b6000602060ff161161047a57600080fd5b610482610885565b6040518060a001604052808581526020018481526020018381526020016000803373ffffffffffffffffffffffffffffffffffffffff1673ffffffffffffffffffffffffffffffffffffffff168152602001908152602001600020600301805480602002602001604051908101604052809291908181526020016000905b828210156105bc578382906000526020600020018054600181600116156101000203166002900480601f0160208091040260200160405190810160405280929190818152602001828054600181600116156101000203166002900480156105a85780601f1061057d576101008083540402835291602001916105a8565b820191906000526020600020905b81548152906001019060200180831161058b57829003601f168201915b505050505081526020019060010190610500565b5050505081526020016000803373ffffffffffffffffffffffffffffffffffffffff1673ffffffffffffffffffffffffffffffffffffffff16815260200190815260200160002060040180548060200260200160405190810160405280929190818152602001828054801561068657602002820191906000526020600020905b8160009054906101000a900473ffffffffffffffffffffffffffffffffffffffff1673ffffffffffffffffffffffffffffffffffffffff168152602001906001019080831161063c575b50505050508152509050806000803373ffffffffffffffffffffffffffffffffffffffff1673ffffffffffffffffffffffffffffffffffffffff168152602001908152602001600020600082015181600001556020820151816001015560408201518160020190805190602001906106ff9291906108b7565b50606082015181600301908051906020019061071c929190610937565b506080820151816004019080519060200190610739929190610997565b5090505050505050565b6000602052806000526040600020600091509050806000015490806001015490806002018054600181600116156101000203166002900480601f0160208091040260200160405190810160405280929190818152602001828054600181600116156101000203166002900480156107fb5780601f106107d0576101008083540402835291602001916107fb565b820191906000526020600020905b8154815290600101906020018083116107de57829003601f168201915b5050505050905083565b828054600181600116156101000203166002900490600052602060002090601f016020900481019282601f1061084657805160ff1916838001178555610874565b82800160010185558215610874579182015b82811115610873578251825591602001919060010190610858565b5b5090506108819190610a21565b5090565b6040518060a0016040528060008019168152602001600081526020016060815260200160608152602001606081525090565b828054600181600116156101000203166002900490600052602060002090601f016020900481019282601f106108f857805160ff1916838001178555610926565b82800160010185558215610926579182015b8281111561092557825182559160200191906001019061090a565b5b5090506109339190610a21565b5090565b828054828255906000526020600020908101928215610986579160200282015b828111156109855782518290805190602001906109759291906108b7565b5091602001919060010190610957565b5b5090506109939190610a46565b5090565b828054828255906000526020600020908101928215610a10579160200282015b82811115610a0f5782518260006101000a81548173ffffffffffffffffffffffffffffffffffffffff021916908373ffffffffffffffffffffffffffffffffffffffff160217905550916020019190600101906109b7565b5b509050610a1d9190610a72565b5090565b610a4391905b80821115610a3f576000816000905550600101610a27565b5090565b90565b610a6f91905b80821115610a6b5760008181610a629190610ab5565b50600101610a4c565b5090565b90565b610ab291905b80821115610aae57600081816101000a81549073ffffffffffffffffffffffffffffffffffffffff021916905550600101610a78565b5090565b90565b50805460018160011615610100020316600290046000825580601f10610adb5750610afa565b601f016020900490600052602060002090810190610af99190610a21565b5b5056fea265627a7a72315820cbdeb6adbba385e791a37c6a6a84ae39773bd2cbf3bcfd55be5b401bfdf7a27064736f6c63430005100032",
  "source": "pragma solidity >=0.4.21 <0.7.0;\n\ncontract SocialMusic {\n    struct User {\n        bytes32 name;\n        uint256 age;\n        string state; // A short description of who they are or how they feel\n        string[] musicRecomendations;\n        address[] following;\n    }\n    mapping(address => User) public users;\n\n    //To add a new musical recomendation\n    function addSong(string memory _songName) public {\n        require(bytes(_songName).length > 0 && bytes(_songName).length <= 100);\n        users[msg.sender].musicRecomendations.push(_songName);\n    }\n\n    // To setup user information\n    function setup(bytes32 _name, uint256 _age, string memory _state) public {\n        require(_name.length > 0);\n        User memory newUser = User(_name, _age, _state, users[msg.sender].musicRecomendations, users[msg.sender].following);\n        users[msg.sender] = newUser;\n    }\n\n    //To follow new users\n    function follow(address _user) public {\n        require(_user != address(0));\n        users[msg.sender].following.push(_user);\n    }\n}",
  "sourcePath": "/home/mrnobody/github/socialmusic/contracts/SocialMusic.sol",
  "compiler": {
    "name": "solc",
    "version": "0.5.16+commit.9c3226ce.Emscripten.clang"
  },
  "schemaVersion": "3.1.0",
  "updatedAt": "2020-04-22T23:07:37.930Z",
  "networkType": "ethereum",
  "devdoc": {
    "methods": {}
  },
  "userdoc": {
    "methods": {}
  }
}